:0300000002019961
:0C019900787FE4F6D8FD75810D0201E0CE
:03000300DFFE22FB
:10000E00AE07AF061EEF600C7FF51200037FF512F0
:05001E00000380EE224A
:0902A500040800000000010CFF38
:10026F00120295120282E4F5907FC812000E75906B
:03027F00FF80FEFF
:10029500438910758CD8758AF0D2AFD2A9D28C2239
:10028200759805438920758DFD858D8BD28ED2AFF1
:03029200D2AC22C9
:03000B0002024BA3
:10024B00C0E0C0D0758CEC758A78E50B2401F50BFA
:10025B00E4350AF50AE43509F509E43508F508D063
:04026B00D0D0E032DD
:03002300020026B2
:0D002600C0E0C083C082C0D075D000C00013
:10003300209803020189C29885990DE50D644F60EC
:1000430005E50DB46F05750C22804CE50DB443082E
:10005300B46305750C33803FE50D64316039E50DFC
:1000630064326033E50D6433602DE50D643460273D
:10007300E50D64356021E50D6436601BE50D6437DD
:100083006015E50D6438600FE50D64616009E50DE9
:1000930064416003750CFFE50C64227074E50D1276
:1000A300022500C73100CC3200D13300D63400DB47
:1000B3003500E03600E53700EA3800EF4101026120
:1000C30000000186C290020183C291020183C292A1
:1000D300020183C293020183C294020183C2950287
:1000E3000183C296020183C297020183C290C29127
:1000F300C292C293C294C295C296C297020183C2AE
:1001030090C291C292C293C294C295C296C2978082
:100113006FE50C6433706CE50D120225014131016A
:100123004532014933014D340151350155360159E9
:1001330037015D3801614101736100000186D2908E
:10014300803ED291803AD2928036D2938032D2943A
:10015300802ED295802AD2968026D2978022D29062
:10016300D291D292D293D294D295D296D297801032
:10017300D290D291D292D293D294D295D296D29750
:0B018300750CFF850D99309902C299A0
:0B018E00D000D0D0D082D083D0E0326F
:1001A50002026FE493A3F8E493A34003F68001F2FF
:1001B50008DFF48029E493A3F85407240CC8C3335B
:1001C500C4540F4420C8834004F456800146F6DF2A
:1001D500E4800B01020408102040809002A5E47E13
:1001E500019360BCA3FF543F30E509541FFEE4931F
:1001F500A360010ECF54C025E060A840B8E493A3E6
:10020500FAE493A3F8E493A3C8C582C8CAC583CA10
:10021500F0A3C8C582C8CAC583CADFE9DEE780BEC8
:0102AE00004F
:10022500D083D082F8E4937012740193700DA3A368
:1002350093F8740193F5828883E47374029368607C
:06024500EFA3A3A380DF7C
:00000001FF
